{
  "_format": "hh-sol-artifact-1",
  "contractName": "LendingContract",
  "sourceName": "contracts/Loan.sol",
  "abi": [
    {
      "inputs": [
        {
          "internalType": "contract MockToken",
          "name": "_collateralToken",
          "type": "address"
        },
        {
          "internalType": "contract MockToken",
          "name": "_lendingToken",
          "type": "address"
        },
        {
          "internalType": "uint256",
          "name": "_amount",
          "type": "uint256"
        }
      ],
      "stateMutability": "nonpayable",
      "type": "constructor"
    },
    {
      "anonymous": false,
      "inputs": [
        {
          "indexed": true,
          "internalType": "address",
          "name": "user",
          "type": "address"
        },
        {
          "indexed": false,
          "internalType": "uint256",
          "name": "amount",
          "type": "uint256"
        }
      ],
      "name": "Borrowed",
      "type": "event"
    },
    {
      "anonymous": false,
      "inputs": [
        {
          "indexed": true,
          "internalType": "address",
          "name": "user",
          "type": "address"
        },
        {
          "indexed": false,
          "internalType": "uint256",
          "name": "amount",
          "type": "uint256"
        }
      ],
      "name": "CollateralDeposited",
      "type": "event"
    },
    {
      "anonymous": false,
      "inputs": [
        {
          "indexed": true,
          "internalType": "address",
          "name": "user",
          "type": "address"
        },
        {
          "indexed": false,
          "internalType": "uint256",
          "name": "amount",
          "type": "uint256"
        }
      ],
      "name": "FaucetUsed",
      "type": "event"
    },
    {
      "anonymous": false,
      "inputs": [
        {
          "indexed": true,
          "internalType": "address",
          "name": "user",
          "type": "address"
        },
        {
          "indexed": false,
          "internalType": "uint256",
          "name": "amount",
          "type": "uint256"
        }
      ],
      "name": "Repaid",
      "type": "event"
    },
    {
      "inputs": [
        {
          "internalType": "uint256",
          "name": "_amount",
          "type": "uint256"
        }
      ],
      "name": "borrow",
      "outputs": [],
      "stateMutability": "nonpayable",
      "type": "function"
    },
    {
      "inputs": [
        {
          "internalType": "address",
          "name": "",
          "type": "address"
        }
      ],
      "name": "collateralBalances",
      "outputs": [
        {
          "internalType": "uint256",
          "name": "",
          "type": "uint256"
        }
      ],
      "stateMutability": "view",
      "type": "function"
    },
    {
      "inputs": [],
      "name": "collateralToken",
      "outputs": [
        {
          "internalType": "contract MockToken",
          "name": "",
          "type": "address"
        }
      ],
      "stateMutability": "view",
      "type": "function"
    },
    {
      "inputs": [
        {
          "internalType": "address",
          "name": "",
          "type": "address"
        }
      ],
      "name": "debt",
      "outputs": [
        {
          "internalType": "uint256",
          "name": "",
          "type": "uint256"
        }
      ],
      "stateMutability": "view",
      "type": "function"
    },
    {
      "inputs": [
        {
          "internalType": "uint256",
          "name": "_amount",
          "type": "uint256"
        }
      ],
      "name": "depositCollateral",
      "outputs": [],
      "stateMutability": "nonpayable",
      "type": "function"
    },
    {
      "inputs": [],
      "name": "faucet",
      "outputs": [],
      "stateMutability": "nonpayable",
      "type": "function"
    },
    {
      "inputs": [],
      "name": "lendingToken",
      "outputs": [
        {
          "internalType": "contract MockToken",
          "name": "",
          "type": "address"
        }
      ],
      "stateMutability": "view",
      "type": "function"
    },
    {
      "inputs": [
        {
          "internalType": "uint256",
          "name": "_amount",
          "type": "uint256"
        }
      ],
      "name": "repay",
      "outputs": [],
      "stateMutability": "nonpayable",
      "type": "function"
    }
  ],
  "bytecode": "0x608060405234801561001057600080fd5b50604051611194380380611194833981810160405281019061003291906101f5565b826000806101000a81548173ffffffffffffffffffffffffffffffffffffffff021916908373ffffffffffffffffffffffffffffffffffffffff16021790555081600160006101000a81548173ffffffffffffffffffffffffffffffffffffffff021916908373ffffffffffffffffffffffffffffffffffffffff160217905550600160009054906101000a900473ffffffffffffffffffffffffffffffffffffffff1673ffffffffffffffffffffffffffffffffffffffff166340c10f1930836040518363ffffffff1660e01b8152600401610110929190610266565b600060405180830381600087803b15801561012a57600080fd5b505af115801561013e573d6000803e3d6000fd5b5050505050505061028f565b600080fd5b600073ffffffffffffffffffffffffffffffffffffffff82169050919050565b600061017a8261014f565b9050919050565b600061018c8261016f565b9050919050565b61019c81610181565b81146101a757600080fd5b50565b6000815190506101b981610193565b92915050565b6000819050919050565b6101d2816101bf565b81146101dd57600080fd5b50565b6000815190506101ef816101c9565b92915050565b60008060006060848603121561020e5761020d61014a565b5b600061021c868287016101aa565b935050602061022d868287016101aa565b925050604061023e868287016101e0565b9150509250925092565b6102518161016f565b82525050565b610260816101bf565b82525050565b600060408201905061027b6000830185610248565b6102886020830184610257565b9392505050565b610ef68061029e6000396000f3fe608060405234801561001057600080fd5b50600436106100885760003560e01c8063b2016bd41161005b578063b2016bd414610127578063bad4a01f14610145578063c5ebeaec14610161578063de5f72fd1461017d57610088565b806329bc969d1461008d578063371fd8e6146100bd5780639b6c56ec146100d9578063aaaca55814610109575b600080fd5b6100a760048036038101906100a291906109ab565b610187565b6040516100b491906109f1565b60405180910390f35b6100d760048036038101906100d29190610a38565b61019f565b005b6100f360048036038101906100ee91906109ab565b6103d9565b60405161010091906109f1565b60405180910390f35b6101116103f1565b60405161011e9190610ac4565b60405180910390f35b61012f610417565b60405161013c9190610ac4565b60405180910390f35b61015f600480360381019061015a9190610a38565b61043b565b005b61017b60048036038101906101769190610a38565b6105c6565b005b610185610859565b005b60026020528060005260406000206000915090505481565b6000600360003373ffffffffffffffffffffffffffffffffffffffff1673ffffffffffffffffffffffffffffffffffffffff1681526020019081526020016000205411610221576040517f08c379a000000000000000000000000000000000000000000000000000000000815260040161021890610b3c565b60405180910390fd5b600160009054906101000a900473ffffffffffffffffffffffffffffffffffffffff1673ffffffffffffffffffffffffffffffffffffffff166323b872dd3330846040518463ffffffff1660e01b815260040161028093929190610b6b565b6020604051808303816000875af115801561029f573d6000803e3d6000fd5b505050506040513d601f19601f820116820180604052508101906102c39190610bda565b5060646096826102d39190610c36565b6102dd9190610ca7565b600260003373ffffffffffffffffffffffffffffffffffffffff1673ffffffffffffffffffffffffffffffffffffffff168152602001908152602001600020600082825461032b9190610cd8565b9250508190555080600360003373ffffffffffffffffffffffffffffffffffffffff1673ffffffffffffffffffffffffffffffffffffffff16815260200190815260200160002060008282546103819190610d0c565b925050819055503373ffffffffffffffffffffffffffffffffffffffff167f0516911bcc3a0a7412a44601057c0a0a1ec628bde049a84284bc428866534488826040516103ce91906109f1565b60405180910390a250565b60036020528060005260406000206000915090505481565b600160009054906101000a900473ffffffffffffffffffffffffffffffffffffffff1681565b60008054906101000a900473ffffffffffffffffffffffffffffffffffffffff1681565b6000811161047e576040517f08c379a000000000000000000000000000000000000000000000000000000000815260040161047590610d8c565b60405180910390fd5b60008054906101000a900473ffffffffffffffffffffffffffffffffffffffff1673ffffffffffffffffffffffffffffffffffffffff166323b872dd3330846040518463ffffffff1660e01b81526004016104db93929190610b6b565b6020604051808303816000875af11580156104fa573d6000803e3d6000fd5b505050506040513d601f19601f8201168201806040525081019061051e9190610bda565b5080600260003373ffffffffffffffffffffffffffffffffffffffff1673ffffffffffffffffffffffffffffffffffffffff168152602001908152602001600020600082825461056e9190610cd8565b925050819055503373ffffffffffffffffffffffffffffffffffffffff167fd7243f6f8212d5188fd054141cf6ea89cfc0d91facb8c3afe2f88a1358480142826040516105bb91906109f1565b60405180910390a250565b60008111610609576040517f08c379a000000000000000000000000000000000000000000000000000000000815260040161060090610d8c565b60405180910390fd5b60646096826106189190610c36565b6106229190610ca7565b600260003373ffffffffffffffffffffffffffffffffffffffff1673ffffffffffffffffffffffffffffffffffffffff1681526020019081526020016000205410156106a3576040517f08c379a000000000000000000000000000000000000000000000000000000000815260040161069a90610df8565b60405180910390fd5b60646096826106b29190610c36565b6106bc9190610ca7565b600260003373ffffffffffffffffffffffffffffffffffffffff1673ffffffffffffffffffffffffffffffffffffffff168152602001908152602001600020600082825461070a9190610d0c565b9250508190555080600360003373ffffffffffffffffffffffffffffffffffffffff1673ffffffffffffffffffffffffffffffffffffffff16815260200190815260200160002060008282546107609190610cd8565b92505081905550600160009054906101000a900473ffffffffffffffffffffffffffffffffffffffff1673ffffffffffffffffffffffffffffffffffffffff1663a9059cbb33836040518363ffffffff1660e01b81526004016107c4929190610e18565b6020604051808303816000875af11580156107e3573d6000803e3d6000fd5b505050506040513d601f19601f820116820180604052508101906108079190610bda565b503373ffffffffffffffffffffffffffffffffffffffff167fac59582e5396aca512fa873a2047e7f4c80f8f55d4a06cb34a78a0187f62719f8260405161084e91906109f1565b60405180910390a250565b60008054906101000a900473ffffffffffffffffffffffffffffffffffffffff1673ffffffffffffffffffffffffffffffffffffffff166340c10f193368056bc75e2d631000006040518363ffffffff1660e01b81526004016108bd929190610e7c565b600060405180830381600087803b1580156108d757600080fd5b505af11580156108eb573d6000803e3d6000fd5b505050503373ffffffffffffffffffffffffffffffffffffffff167fc471df7d13ab46c73ec6eb2da0f35f84077f20d50243ba09a714b82cffc54de968056bc75e2d6310000060405161093e9190610ea5565b60405180910390a2565b600080fd5b600073ffffffffffffffffffffffffffffffffffffffff82169050919050565b60006109788261094d565b9050919050565b6109888161096d565b811461099357600080fd5b50565b6000813590506109a58161097f565b92915050565b6000602082840312156109c1576109c0610948565b5b60006109cf84828501610996565b91505092915050565b6000819050919050565b6109eb816109d8565b82525050565b6000602082019050610a0660008301846109e2565b92915050565b610a15816109d8565b8114610a2057600080fd5b50565b600081359050610a3281610a0c565b92915050565b600060208284031215610a4e57610a4d610948565b5b6000610a5c84828501610a23565b91505092915050565b6000819050919050565b6000610a8a610a85610a808461094d565b610a65565b61094d565b9050919050565b6000610a9c82610a6f565b9050919050565b6000610aae82610a91565b9050919050565b610abe81610aa3565b82525050565b6000602082019050610ad96000830184610ab5565b92915050565b600082825260208201905092915050565b7f4e6f206f75747374616e64696e67206465627400000000000000000000000000600082015250565b6000610b26601383610adf565b9150610b3182610af0565b602082019050919050565b60006020820190508181036000830152610b5581610b19565b9050919050565b610b658161096d565b82525050565b6000606082019050610b806000830186610b5c565b610b8d6020830185610b5c565b610b9a60408301846109e2565b949350505050565b60008115159050919050565b610bb781610ba2565b8114610bc257600080fd5b50565b600081519050610bd481610bae565b92915050565b600060208284031215610bf057610bef610948565b5b6000610bfe84828501610bc5565b91505092915050565b7f4e487b7100000000000000000000000000000000000000000000000000000000600052601160045260246000fd5b6000610c41826109d8565b9150610c4c836109d8565b9250828202610c5a816109d8565b91508282048414831517610c7157610c70610c07565b5b5092915050565b7f4e487b7100000000000000000000000000000000000000000000000000000000600052601260045260246000fd5b6000610cb2826109d8565b9150610cbd836109d8565b925082610ccd57610ccc610c78565b5b828204905092915050565b6000610ce3826109d8565b9150610cee836109d8565b9250828201905080821115610d0657610d05610c07565b5b92915050565b6000610d17826109d8565b9150610d22836109d8565b9250828203905081811115610d3a57610d39610c07565b5b92915050565b7f416d6f756e74206d7573742062652067726561746572207468616e207a65726f600082015250565b6000610d76602083610adf565b9150610d8182610d40565b602082019050919050565b60006020820190508181036000830152610da581610d69565b9050919050565b7f496e73756666696369656e7420636f6c6c61746572616c000000000000000000600082015250565b6000610de2601783610adf565b9150610ded82610dac565b602082019050919050565b60006020820190508181036000830152610e1181610dd5565b9050919050565b6000604082019050610e2d6000830185610b5c565b610e3a60208301846109e2565b9392505050565b6000819050919050565b6000610e66610e61610e5c84610e41565b610a65565b6109d8565b9050919050565b610e7681610e4b565b82525050565b6000604082019050610e916000830185610b5c565b610e9e6020830184610e6d565b9392505050565b6000602082019050610eba6000830184610e6d565b9291505056fea26469706673582212204be708f856e67f38e8b8af44715fdaf49db1a1ffb3730d6200b0cec75dac11a264736f6c634300081b0033",
  "linkReferences": {},
  "deployedLinkReferences": {}
}