{
	"contracts/Loan.sol": {
		"LendingContract": {
			"abi": [
				{
					"inputs": [
						{
							"internalType": "contract MockToken",
							"name": "_collateralToken",
							"type": "address"
						},
						{
							"internalType": "contract MockToken",
							"name": "_lendingToken",
							"type": "address"
						},
						{
							"internalType": "uint256",
							"name": "_amount",
							"type": "uint256"
						}
					],
					"stateMutability": "nonpayable",
					"type": "constructor"
				},
				{
					"anonymous": false,
					"inputs": [
						{
							"indexed": true,
							"internalType": "address",
							"name": "user",
							"type": "address"
						},
						{
							"indexed": false,
							"internalType": "uint256",
							"name": "amount",
							"type": "uint256"
						}
					],
					"name": "Borrowed",
					"type": "event"
				},
				{
					"anonymous": false,
					"inputs": [
						{
							"indexed": true,
							"internalType": "address",
							"name": "user",
							"type": "address"
						},
						{
							"indexed": false,
							"internalType": "uint256",
							"name": "amount",
							"type": "uint256"
						}
					],
					"name": "CollateralDeposited",
					"type": "event"
				},
				{
					"anonymous": false,
					"inputs": [
						{
							"indexed": true,
							"internalType": "address",
							"name": "user",
							"type": "address"
						},
						{
							"indexed": false,
							"internalType": "uint256",
							"name": "amount",
							"type": "uint256"
						}
					],
					"name": "FaucetUsed",
					"type": "event"
				},
				{
					"anonymous": false,
					"inputs": [
						{
							"indexed": true,
							"internalType": "address",
							"name": "user",
							"type": "address"
						},
						{
							"indexed": false,
							"internalType": "uint256",
							"name": "amount",
							"type": "uint256"
						}
					],
					"name": "Repaid",
					"type": "event"
				},
				{
					"inputs": [
						{
							"internalType": "uint256",
							"name": "_amount",
							"type": "uint256"
						}
					],
					"name": "borrow",
					"outputs": [],
					"stateMutability": "nonpayable",
					"type": "function"
				},
				{
					"inputs": [
						{
							"internalType": "address",
							"name": "",
							"type": "address"
						}
					],
					"name": "collateralBalances",
					"outputs": [
						{
							"internalType": "uint256",
							"name": "",
							"type": "uint256"
						}
					],
					"stateMutability": "view",
					"type": "function"
				},
				{
					"inputs": [],
					"name": "collateralToken",
					"outputs": [
						{
							"internalType": "contract MockToken",
							"name": "",
							"type": "address"
						}
					],
					"stateMutability": "view",
					"type": "function"
				},
				{
					"inputs": [
						{
							"internalType": "address",
							"name": "",
							"type": "address"
						}
					],
					"name": "debt",
					"outputs": [
						{
							"internalType": "uint256",
							"name": "",
							"type": "uint256"
						}
					],
					"stateMutability": "view",
					"type": "function"
				},
				{
					"inputs": [
						{
							"internalType": "uint256",
							"name": "_amount",
							"type": "uint256"
						}
					],
					"name": "depositCollateral",
					"outputs": [],
					"stateMutability": "nonpayable",
					"type": "function"
				},
				{
					"inputs": [],
					"name": "faucet",
					"outputs": [],
					"stateMutability": "nonpayable",
					"type": "function"
				},
				{
					"inputs": [],
					"name": "lendingToken",
					"outputs": [
						{
							"internalType": "contract MockToken",
							"name": "",
							"type": "address"
						}
					],
					"stateMutability": "view",
					"type": "function"
				},
				{
					"inputs": [
						{
							"internalType": "uint256",
							"name": "_amount",
							"type": "uint256"
						}
					],
					"name": "repay",
					"outputs": [],
					"stateMutability": "nonpayable",
					"type": "function"
				}
			],
			"devdoc": {
				"kind": "dev",
				"methods": {},
				"version": 1
			},
			"evm": {
				"assembly": "    /* \"contracts/Loan.sol\":84:2026  contract LendingContract {... */\n  mstore(0x40, 0x80)\n    /* \"contracts/Loan.sol\":577:799  constructor(MockToken _collateralToken, MockToken _lendingToken, uint256 _amount) {... */\n  callvalue\n  dup1\n  iszero\n  tag_1\n  jumpi\n  0x00\n  dup1\n  revert\ntag_1:\n  pop\n  mload(0x40)\n  sub(codesize, bytecodeSize)\n  dup1\n  bytecodeSize\n  dup4\n  codecopy\n  dup2\n  add\n  0x40\n  dup2\n  swap1\n  mstore\n  tag_2\n  swap2\n  tag_3\n  jump\t// in\ntag_2:\n    /* \"contracts/Loan.sol\":669:684  collateralToken */\n  0x00\n    /* \"contracts/Loan.sol\":669:703  collateralToken = _collateralToken */\n  dup1\n  sload\n  sub(shl(0xa0, 0x01), 0x01)\n  dup6\n  dup2\n  and\n  not(sub(shl(0xa0, 0x01), 0x01))\n  swap3\n  dup4\n  and\n  or\n  swap1\n  swap3\n  sstore\n  0x01\n    /* \"contracts/Loan.sol\":713:741  lendingToken = _lendingToken */\n  dup1\n  sload\n  swap3\n  dup6\n  and\n  swap3\n  swap1\n  swap2\n  and\n  dup3\n  or\n  swap1\n  sstore\n    /* \"contracts/Loan.sol\":751:792  lendingToken.mint(address(this), _amount) */\n  mload(0x40)\n  shl(0xe0, 0x40c10f19)\n  dup2\n  mstore\n    /* \"contracts/Loan.sol\":777:781  this */\n  address\n    /* \"contracts/Loan.sol\":751:792  lendingToken.mint(address(this), _amount) */\n  0x04\n  dup3\n  add\n    /* \"#utility.yul\":798:849   */\n  mstore\n    /* \"#utility.yul\":865:883   */\n  0x24\n  dup2\n  add\n    /* \"#utility.yul\":858:892   */\n  dup4\n  swap1\n  mstore\n    /* \"contracts/Loan.sol\":751:768  lendingToken.mint */\n  0x40c10f19\n  swap1\n    /* \"#utility.yul\":771:789   */\n  0x44\n  add\n    /* \"contracts/Loan.sol\":751:792  lendingToken.mint(address(this), _amount) */\n  0x00\n  mload(0x40)\n  dup1\n  dup4\n  sub\n  dup2\n  0x00\n  dup8\n  dup1\n  extcodesize\n  iszero\n  dup1\n  iszero\n  tag_8\n  jumpi\n  0x00\n  dup1\n  revert\ntag_8:\n  pop\n  gas\n  call\n  iszero\n  dup1\n  iszero\n  tag_10\n  jumpi\n  returndatasize\n  0x00\n  dup1\n  returndatacopy\n  revert(0x00, returndatasize)\ntag_10:\n  pop\n  pop\n  pop\n  pop\n    /* \"contracts/Loan.sol\":577:799  constructor(MockToken _collateralToken, MockToken _lendingToken, uint256 _amount) {... */\n  pop\n  pop\n  pop\n    /* \"contracts/Loan.sol\":84:2026  contract LendingContract {... */\n  jump(tag_13)\n    /* \"#utility.yul\":14:202   */\ntag_12:\n    /* \"#utility.yul\":104:117   */\n  dup1\n  mload\n  sub(shl(0xa0, 0x01), 0x01)\n    /* \"#utility.yul\":146:177   */\n  dup2\n  and\n    /* \"#utility.yul\":136:178   */\n  dup2\n  eq\n    /* \"#utility.yul\":126:196   */\n  tag_15\n  jumpi\n    /* \"#utility.yul\":192:193   */\n  0x00\n    /* \"#utility.yul\":189:190   */\n  dup1\n    /* \"#utility.yul\":182:194   */\n  revert\n    /* \"#utility.yul\":126:196   */\ntag_15:\n    /* \"#utility.yul\":14:202   */\n  swap2\n  swap1\n  pop\n  jump\t// out\n    /* \"#utility.yul\":207:619   */\ntag_3:\n    /* \"#utility.yul\":331:337   */\n  0x00\n    /* \"#utility.yul\":339:345   */\n  dup1\n    /* \"#utility.yul\":347:353   */\n  0x00\n    /* \"#utility.yul\":400:402   */\n  0x60\n    /* \"#utility.yul\":388:397   */\n  dup5\n    /* \"#utility.yul\":379:386   */\n  dup7\n    /* \"#utility.yul\":375:398   */\n  sub\n    /* \"#utility.yul\":371:403   */\n  slt\n    /* \"#utility.yul\":368:420   */\n  iszero\n  tag_17\n  jumpi\n    /* \"#utility.yul\":416:417   */\n  0x00\n    /* \"#utility.yul\":413:414   */\n  dup1\n    /* \"#utility.yul\":406:418   */\n  revert\n    /* \"#utility.yul\":368:420   */\ntag_17:\n    /* \"#utility.yul\":439:490   */\n  tag_18\n    /* \"#utility.yul\":480:489   */\n  dup5\n    /* \"#utility.yul\":439:490   */\n  tag_12\n  jump\t// in\ntag_18:\n    /* \"#utility.yul\":429:490   */\n  swap3\n  pop\n    /* \"#utility.yul\":509:569   */\n  tag_19\n    /* \"#utility.yul\":565:567   */\n  0x20\n    /* \"#utility.yul\":554:563   */\n  dup6\n    /* \"#utility.yul\":550:568   */\n  add\n    /* \"#utility.yul\":509:569   */\n  tag_12\n  jump\t// in\ntag_19:\n    /* \"#utility.yul\":499:569   */\n  swap2\n  pop\n    /* \"#utility.yul\":609:611   */\n  0x40\n    /* \"#utility.yul\":598:607   */\n  dup5\n    /* \"#utility.yul\":594:612   */\n  add\n    /* \"#utility.yul\":588:613   */\n  mload\n    /* \"#utility.yul\":578:613   */\n  swap1\n  pop\n    /* \"#utility.yul\":207:619   */\n  swap3\n  pop\n  swap3\n  pop\n  swap3\n  jump\t// out\n    /* \"#utility.yul\":624:898   */\ntag_13:\n    /* \"contracts/Loan.sol\":84:2026  contract LendingContract {... */\n  dataSize(sub_0)\n  dup1\n  dataOffset(sub_0)\n  0x00\n  codecopy\n  0x00\n  return\nstop\n\nsub_0: assembly {\n        /* \"contracts/Loan.sol\":84:2026  contract LendingContract {... */\n      mstore(0x40, 0x80)\n      callvalue\n      dup1\n      iszero\n      tag_1\n      jumpi\n      0x00\n      dup1\n      revert\n    tag_1:\n      pop\n      jumpi(tag_2, lt(calldatasize, 0x04))\n      shr(0xe0, calldataload(0x00))\n      dup1\n      0xb2016bd4\n      gt\n      tag_11\n      jumpi\n      dup1\n      0xb2016bd4\n      eq\n      tag_7\n      jumpi\n      dup1\n      0xbad4a01f\n      eq\n      tag_8\n      jumpi\n      dup1\n      0xc5ebeaec\n      eq\n      tag_9\n      jumpi\n      dup1\n      0xde5f72fd\n      eq\n      tag_10\n      jumpi\n      0x00\n      dup1\n      revert\n    tag_11:\n      dup1\n      0x29bc969d\n      eq\n      tag_3\n      jumpi\n      dup1\n      0x371fd8e6\n      eq\n      tag_4\n      jumpi\n      dup1\n      0x9b6c56ec\n      eq\n      tag_5\n      jumpi\n      dup1\n      0xaaaca558\n      eq\n      tag_6\n      jumpi\n    tag_2:\n      0x00\n      dup1\n      revert\n        /* \"contracts/Loan.sol\":228:281  mapping(address => uint256) public collateralBalances */\n    tag_3:\n      tag_12\n      tag_13\n      calldatasize\n      0x04\n      tag_14\n      jump\t// in\n    tag_13:\n      mstore(0x20, 0x02)\n      0x00\n      swap1\n      dup2\n      mstore\n      0x40\n      swap1\n      keccak256\n      sload\n      dup2\n      jump\n    tag_12:\n      mload(0x40)\n        /* \"#utility.yul\":451:476   */\n      swap1\n      dup2\n      mstore\n        /* \"#utility.yul\":439:441   */\n      0x20\n        /* \"#utility.yul\":424:442   */\n      add\n        /* \"contracts/Loan.sol\":228:281  mapping(address => uint256) public collateralBalances */\n    tag_16:\n      mload(0x40)\n      dup1\n      swap2\n      sub\n      swap1\n      return\n        /* \"contracts/Loan.sol\":1564:1826  function repay(uint256 _amount) external {... */\n    tag_4:\n      tag_18\n      tag_19\n      calldatasize\n      0x04\n      tag_20\n      jump\t// in\n    tag_19:\n      tag_21\n      jump\t// in\n    tag_18:\n      stop\n        /* \"contracts/Loan.sol\":287:326  mapping(address => uint256) public debt */\n    tag_5:\n      tag_12\n      tag_23\n      calldatasize\n      0x04\n      tag_14\n      jump\t// in\n    tag_23:\n      mstore(0x20, 0x03)\n      0x00\n      swap1\n      dup2\n      mstore\n      0x40\n      swap1\n      keccak256\n      sload\n      dup2\n      jump\n        /* \"contracts/Loan.sol\":173:202  MockToken public lendingToken */\n    tag_6:\n      sload(0x01)\n      tag_26\n      swap1\n      sub(shl(0xa0, 0x01), 0x01)\n      and\n      dup2\n      jump\n    tag_26:\n      mload(0x40)\n      sub(shl(0xa0, 0x01), 0x01)\n        /* \"#utility.yul\":854:886   */\n      swap1\n      swap2\n      and\n        /* \"#utility.yul\":836:887   */\n      dup2\n      mstore\n        /* \"#utility.yul\":824:826   */\n      0x20\n        /* \"#utility.yul\":809:827   */\n      add\n        /* \"contracts/Loan.sol\":173:202  MockToken public lendingToken */\n      tag_16\n        /* \"#utility.yul\":672:893   */\n      jump\n        /* \"contracts/Loan.sol\":115:147  MockToken public collateralToken */\n    tag_7:\n      sload(0x00)\n      tag_26\n      swap1\n      sub(shl(0xa0, 0x01), 0x01)\n      and\n      dup2\n      jump\n        /* \"contracts/Loan.sol\":834:1141  function depositCollateral(uint256 _amount) external {... */\n    tag_8:\n      tag_18\n      tag_34\n      calldatasize\n      0x04\n      tag_20\n      jump\t// in\n    tag_34:\n      tag_35\n      jump\t// in\n        /* \"contracts/Loan.sol\":1167:1538  function borrow(uint256 _amount) external {... */\n    tag_9:\n      tag_18\n      tag_37\n      calldatasize\n      0x04\n      tag_20\n      jump\t// in\n    tag_37:\n      tag_38\n      jump\t// in\n        /* \"contracts/Loan.sol\":1901:2024  function faucet() external {... */\n    tag_10:\n      tag_18\n      tag_40\n      jump\t// in\n        /* \"contracts/Loan.sol\":1564:1826  function repay(uint256 _amount) external {... */\n    tag_21:\n        /* \"contracts/Loan.sol\":1628:1638  msg.sender */\n      caller\n        /* \"contracts/Loan.sol\":1642:1643  0 */\n      0x00\n        /* \"contracts/Loan.sol\":1623:1639  debt[msg.sender] */\n      swap1\n      dup2\n      mstore\n        /* \"contracts/Loan.sol\":1623:1627  debt */\n      0x03\n        /* \"contracts/Loan.sol\":1623:1639  debt[msg.sender] */\n      0x20\n      mstore\n      0x40\n      swap1\n      keccak256\n      sload\n        /* \"contracts/Loan.sol\":1615:1667  require(debt[msg.sender] > 0, \"No outstanding debt\") */\n      tag_42\n      jumpi\n      mload(0x40)\n      shl(0xe5, 0x461bcd)\n      dup2\n      mstore\n        /* \"#utility.yul\":1100:1102   */\n      0x20\n        /* \"contracts/Loan.sol\":1615:1667  require(debt[msg.sender] > 0, \"No outstanding debt\") */\n      0x04\n      dup3\n      add\n        /* \"#utility.yul\":1082:1103   */\n      mstore\n        /* \"#utility.yul\":1139:1141   */\n      0x13\n        /* \"#utility.yul\":1119:1137   */\n      0x24\n      dup3\n      add\n        /* \"#utility.yul\":1112:1142   */\n      mstore\n      shl(0x6a, 0x139bc81bdd5d1cdd185b991a5b99c81919589d)\n        /* \"#utility.yul\":1158:1176   */\n      0x44\n      dup3\n      add\n        /* \"#utility.yul\":1151:1200   */\n      mstore\n        /* \"#utility.yul\":1217:1235   */\n      0x64\n      add\n        /* \"contracts/Loan.sol\":1615:1667  require(debt[msg.sender] > 0, \"No outstanding debt\") */\n    tag_43:\n      mload(0x40)\n      dup1\n      swap2\n      sub\n      swap1\n      revert\n    tag_42:\n        /* \"contracts/Loan.sol\":1677:1689  lendingToken */\n      sload(0x01)\n        /* \"contracts/Loan.sol\":1677:1738  lendingToken.transferFrom(msg.sender, address(this), _amount) */\n      mload(0x40)\n      shl(0xe0, 0x23b872dd)\n      dup2\n      mstore\n        /* \"contracts/Loan.sol\":1703:1713  msg.sender */\n      caller\n        /* \"contracts/Loan.sol\":1677:1738  lendingToken.transferFrom(msg.sender, address(this), _amount) */\n      0x04\n      dup3\n      add\n        /* \"#utility.yul\":1448:1499   */\n      mstore\n        /* \"contracts/Loan.sol\":1723:1727  this */\n      address\n        /* \"#utility.yul\":1515:1533   */\n      0x24\n      dup3\n      add\n        /* \"#utility.yul\":1508:1568   */\n      mstore\n        /* \"#utility.yul\":1584:1602   */\n      0x44\n      dup2\n      add\n        /* \"#utility.yul\":1577:1611   */\n      dup4\n      swap1\n      mstore\n      sub(shl(0xa0, 0x01), 0x01)\n        /* \"contracts/Loan.sol\":1677:1689  lendingToken */\n      swap1\n      swap2\n      and\n      swap1\n        /* \"contracts/Loan.sol\":1677:1702  lendingToken.transferFrom */\n      0x23b872dd\n      swap1\n        /* \"#utility.yul\":1421:1439   */\n      0x64\n      add\n        /* \"contracts/Loan.sol\":1677:1738  lendingToken.transferFrom(msg.sender, address(this), _amount) */\n      0x20\n      mload(0x40)\n      dup1\n      dup4\n      sub\n      dup2\n      0x00\n      dup8\n      gas\n      call\n      iszero\n      dup1\n      iszero\n      tag_48\n      jumpi\n      returndatasize\n      0x00\n      dup1\n      returndatacopy\n      revert(0x00, returndatasize)\n    tag_48:\n      pop\n      pop\n      pop\n      pop\n      mload(0x40)\n      returndatasize\n      not(0x1f)\n      0x1f\n      dup3\n      add\n      and\n      dup3\n      add\n      dup1\n      0x40\n      mstore\n      pop\n      dup2\n      add\n      swap1\n      tag_49\n      swap2\n      swap1\n      tag_50\n      jump\t// in\n    tag_49:\n      pop\n        /* \"contracts/Loan.sol\":1754:1764  msg.sender */\n      caller\n        /* \"contracts/Loan.sol\":1749:1765  debt[msg.sender] */\n      0x00\n      swap1\n      dup2\n      mstore\n        /* \"contracts/Loan.sol\":1749:1753  debt */\n      0x03\n        /* \"contracts/Loan.sol\":1749:1765  debt[msg.sender] */\n      0x20\n      mstore\n      0x40\n      dup2\n      keccak256\n        /* \"contracts/Loan.sol\":1749:1776  debt[msg.sender] -= _amount */\n      dup1\n      sload\n        /* \"contracts/Loan.sol\":1769:1776  _amount */\n      dup4\n      swap3\n        /* \"contracts/Loan.sol\":1749:1765  debt[msg.sender] */\n      swap1\n        /* \"contracts/Loan.sol\":1749:1776  debt[msg.sender] -= _amount */\n      tag_51\n      swap1\n        /* \"contracts/Loan.sol\":1769:1776  _amount */\n      dup5\n      swap1\n        /* \"contracts/Loan.sol\":1749:1776  debt[msg.sender] -= _amount */\n      tag_52\n      jump\t// in\n    tag_51:\n      swap1\n      swap2\n      sstore\n      pop\n      pop\n        /* \"contracts/Loan.sol\":1792:1819  Repaid(msg.sender, _amount) */\n      mload(0x40)\n        /* \"#utility.yul\":451:476   */\n      dup2\n      dup2\n      mstore\n        /* \"contracts/Loan.sol\":1799:1809  msg.sender */\n      caller\n      swap1\n        /* \"contracts/Loan.sol\":1792:1819  Repaid(msg.sender, _amount) */\n      0x0516911bcc3a0a7412a44601057c0a0a1ec628bde049a84284bc428866534488\n      swap1\n        /* \"#utility.yul\":439:441   */\n      0x20\n        /* \"#utility.yul\":424:442   */\n      add\n        /* \"contracts/Loan.sol\":1792:1819  Repaid(msg.sender, _amount) */\n    tag_53:\n      mload(0x40)\n      dup1\n      swap2\n      sub\n      swap1\n      log2\n        /* \"contracts/Loan.sol\":1564:1826  function repay(uint256 _amount) external {... */\n      pop\n      jump\t// out\n        /* \"contracts/Loan.sol\":834:1141  function depositCollateral(uint256 _amount) external {... */\n    tag_35:\n        /* \"contracts/Loan.sol\":915:916  0 */\n      0x00\n        /* \"contracts/Loan.sol\":905:912  _amount */\n      dup2\n        /* \"contracts/Loan.sol\":905:916  _amount > 0 */\n      gt\n        /* \"contracts/Loan.sol\":897:953  require(_amount > 0, \"Amount must be greater than zero\") */\n      tag_55\n      jumpi\n      mload(0x40)\n      shl(0xe5, 0x461bcd)\n      dup2\n      mstore\n        /* \"#utility.yul\":2371:2373   */\n      0x20\n        /* \"contracts/Loan.sol\":897:953  require(_amount > 0, \"Amount must be greater than zero\") */\n      0x04\n      dup3\n      add\n        /* \"#utility.yul\":2353:2374   */\n      dup2\n      swap1\n      mstore\n        /* \"#utility.yul\":2390:2408   */\n      0x24\n      dup3\n      add\n        /* \"#utility.yul\":2383:2413   */\n      mstore\n        /* \"#utility.yul\":2449:2483   */\n      0x416d6f756e74206d7573742062652067726561746572207468616e207a65726f\n        /* \"#utility.yul\":2429:2447   */\n      0x44\n      dup3\n      add\n        /* \"#utility.yul\":2422:2484   */\n      mstore\n        /* \"#utility.yul\":2501:2519   */\n      0x64\n      add\n        /* \"contracts/Loan.sol\":897:953  require(_amount > 0, \"Amount must be greater than zero\") */\n      tag_43\n        /* \"#utility.yul\":2169:2525   */\n      jump\n        /* \"contracts/Loan.sol\":897:953  require(_amount > 0, \"Amount must be greater than zero\") */\n    tag_55:\n        /* \"contracts/Loan.sol\":963:978  collateralToken */\n      sload(0x00)\n        /* \"contracts/Loan.sol\":963:1027  collateralToken.transferFrom(msg.sender, address(this), _amount) */\n      mload(0x40)\n      shl(0xe0, 0x23b872dd)\n      dup2\n      mstore\n        /* \"contracts/Loan.sol\":992:1002  msg.sender */\n      caller\n        /* \"contracts/Loan.sol\":963:1027  collateralToken.transferFrom(msg.sender, address(this), _amount) */\n      0x04\n      dup3\n      add\n        /* \"#utility.yul\":1448:1499   */\n      mstore\n        /* \"contracts/Loan.sol\":1012:1016  this */\n      address\n        /* \"#utility.yul\":1515:1533   */\n      0x24\n      dup3\n      add\n        /* \"#utility.yul\":1508:1568   */\n      mstore\n        /* \"#utility.yul\":1584:1602   */\n      0x44\n      dup2\n      add\n        /* \"#utility.yul\":1577:1611   */\n      dup4\n      swap1\n      mstore\n      sub(shl(0xa0, 0x01), 0x01)\n        /* \"contracts/Loan.sol\":963:978  collateralToken */\n      swap1\n      swap2\n      and\n      swap1\n        /* \"contracts/Loan.sol\":963:991  collateralToken.transferFrom */\n      0x23b872dd\n      swap1\n        /* \"#utility.yul\":1421:1439   */\n      0x64\n      add\n        /* \"contracts/Loan.sol\":963:1027  collateralToken.transferFrom(msg.sender, address(this), _amount) */\n      0x20\n      mload(0x40)\n      dup1\n      dup4\n      sub\n      dup2\n      0x00\n      dup8\n      gas\n      call\n      iszero\n      dup1\n      iszero\n      tag_60\n      jumpi\n      returndatasize\n      0x00\n      dup1\n      returndatacopy\n      revert(0x00, returndatasize)\n    tag_60:\n      pop\n      pop\n      pop\n      pop\n      mload(0x40)\n      returndatasize\n      not(0x1f)\n      0x1f\n      dup3\n      add\n      and\n      dup3\n      add\n      dup1\n      0x40\n      mstore\n      pop\n      dup2\n      add\n      swap1\n      tag_61\n      swap2\n      swap1\n      tag_50\n      jump\t// in\n    tag_61:\n      pop\n        /* \"contracts/Loan.sol\":1056:1066  msg.sender */\n      caller\n        /* \"contracts/Loan.sol\":1037:1067  collateralBalances[msg.sender] */\n      0x00\n      swap1\n      dup2\n      mstore\n        /* \"contracts/Loan.sol\":1037:1055  collateralBalances */\n      0x02\n        /* \"contracts/Loan.sol\":1037:1067  collateralBalances[msg.sender] */\n      0x20\n      mstore\n      0x40\n      dup2\n      keccak256\n        /* \"contracts/Loan.sol\":1037:1078  collateralBalances[msg.sender] += _amount */\n      dup1\n      sload\n        /* \"contracts/Loan.sol\":1071:1078  _amount */\n      dup4\n      swap3\n        /* \"contracts/Loan.sol\":1037:1067  collateralBalances[msg.sender] */\n      swap1\n        /* \"contracts/Loan.sol\":1037:1078  collateralBalances[msg.sender] += _amount */\n      tag_62\n      swap1\n        /* \"contracts/Loan.sol\":1071:1078  _amount */\n      dup5\n      swap1\n        /* \"contracts/Loan.sol\":1037:1078  collateralBalances[msg.sender] += _amount */\n      tag_63\n      jump\t// in\n    tag_62:\n      swap1\n      swap2\n      sstore\n      pop\n      pop\n        /* \"contracts/Loan.sol\":1094:1134  CollateralDeposited(msg.sender, _amount) */\n      mload(0x40)\n        /* \"#utility.yul\":451:476   */\n      dup2\n      dup2\n      mstore\n        /* \"contracts/Loan.sol\":1114:1124  msg.sender */\n      caller\n      swap1\n        /* \"contracts/Loan.sol\":1094:1134  CollateralDeposited(msg.sender, _amount) */\n      0xd7243f6f8212d5188fd054141cf6ea89cfc0d91facb8c3afe2f88a1358480142\n      swap1\n        /* \"#utility.yul\":439:441   */\n      0x20\n        /* \"#utility.yul\":424:442   */\n      add\n        /* \"contracts/Loan.sol\":1094:1134  CollateralDeposited(msg.sender, _amount) */\n      tag_53\n        /* \"#utility.yul\":305:482   */\n      jump\n        /* \"contracts/Loan.sol\":1167:1538  function borrow(uint256 _amount) external {... */\n    tag_38:\n        /* \"contracts/Loan.sol\":1237:1238  0 */\n      0x00\n        /* \"contracts/Loan.sol\":1227:1234  _amount */\n      dup2\n        /* \"contracts/Loan.sol\":1227:1238  _amount > 0 */\n      gt\n        /* \"contracts/Loan.sol\":1219:1275  require(_amount > 0, \"Amount must be greater than zero\") */\n      tag_66\n      jumpi\n      mload(0x40)\n      shl(0xe5, 0x461bcd)\n      dup2\n      mstore\n        /* \"#utility.yul\":2371:2373   */\n      0x20\n        /* \"contracts/Loan.sol\":1219:1275  require(_amount > 0, \"Amount must be greater than zero\") */\n      0x04\n      dup3\n      add\n        /* \"#utility.yul\":2353:2374   */\n      dup2\n      swap1\n      mstore\n        /* \"#utility.yul\":2390:2408   */\n      0x24\n      dup3\n      add\n        /* \"#utility.yul\":2383:2413   */\n      mstore\n        /* \"#utility.yul\":2449:2483   */\n      0x416d6f756e74206d7573742062652067726561746572207468616e207a65726f\n        /* \"#utility.yul\":2429:2447   */\n      0x44\n      dup3\n      add\n        /* \"#utility.yul\":2422:2484   */\n      mstore\n        /* \"#utility.yul\":2501:2519   */\n      0x64\n      add\n        /* \"contracts/Loan.sol\":1219:1275  require(_amount > 0, \"Amount must be greater than zero\") */\n      tag_43\n        /* \"#utility.yul\":2169:2525   */\n      jump\n        /* \"contracts/Loan.sol\":1219:1275  require(_amount > 0, \"Amount must be greater than zero\") */\n    tag_66:\n        /* \"contracts/Loan.sol\":1343:1346  100 */\n      0x64\n        /* \"contracts/Loan.sol\":1327:1340  _amount * 150 */\n      tag_68\n        /* \"contracts/Loan.sol\":1327:1334  _amount */\n      dup3\n        /* \"contracts/Loan.sol\":1337:1340  150 */\n      0x96\n        /* \"contracts/Loan.sol\":1327:1340  _amount * 150 */\n      tag_69\n      jump\t// in\n    tag_68:\n        /* \"contracts/Loan.sol\":1327:1346  _amount * 150 / 100 */\n      tag_70\n      swap2\n      swap1\n      tag_71\n      jump\t// in\n    tag_70:\n        /* \"contracts/Loan.sol\":1312:1322  msg.sender */\n      caller\n        /* \"contracts/Loan.sol\":1293:1323  collateralBalances[msg.sender] */\n      0x00\n      swap1\n      dup2\n      mstore\n        /* \"contracts/Loan.sol\":1293:1311  collateralBalances */\n      0x02\n        /* \"contracts/Loan.sol\":1293:1323  collateralBalances[msg.sender] */\n      0x20\n      mstore\n      0x40\n      swap1\n      keccak256\n      sload\n        /* \"contracts/Loan.sol\":1293:1346  collateralBalances[msg.sender] >= _amount * 150 / 100 */\n      lt\n      iszero\n        /* \"contracts/Loan.sol\":1285:1374  require(collateralBalances[msg.sender] >= _amount * 150 / 100, \"Insufficient collateral\") */\n      tag_72\n      jumpi\n      mload(0x40)\n      shl(0xe5, 0x461bcd)\n      dup2\n      mstore\n        /* \"#utility.yul\":3257:3259   */\n      0x20\n        /* \"contracts/Loan.sol\":1285:1374  require(collateralBalances[msg.sender] >= _amount * 150 / 100, \"Insufficient collateral\") */\n      0x04\n      dup3\n      add\n        /* \"#utility.yul\":3239:3260   */\n      mstore\n        /* \"#utility.yul\":3296:3298   */\n      0x17\n        /* \"#utility.yul\":3276:3294   */\n      0x24\n      dup3\n      add\n        /* \"#utility.yul\":3269:3299   */\n      mstore\n        /* \"#utility.yul\":3335:3360   */\n      0x496e73756666696369656e7420636f6c6c61746572616c000000000000000000\n        /* \"#utility.yul\":3315:3333   */\n      0x44\n      dup3\n      add\n        /* \"#utility.yul\":3308:3361   */\n      mstore\n        /* \"#utility.yul\":3378:3396   */\n      0x64\n      add\n        /* \"contracts/Loan.sol\":1285:1374  require(collateralBalances[msg.sender] >= _amount * 150 / 100, \"Insufficient collateral\") */\n      tag_43\n        /* \"#utility.yul\":3055:3402   */\n      jump\n        /* \"contracts/Loan.sol\":1285:1374  require(collateralBalances[msg.sender] >= _amount * 150 / 100, \"Insufficient collateral\") */\n    tag_72:\n        /* \"contracts/Loan.sol\":1411:1421  msg.sender */\n      caller\n        /* \"contracts/Loan.sol\":1406:1422  debt[msg.sender] */\n      0x00\n      swap1\n      dup2\n      mstore\n        /* \"contracts/Loan.sol\":1406:1410  debt */\n      0x03\n        /* \"contracts/Loan.sol\":1406:1422  debt[msg.sender] */\n      0x20\n      mstore\n      0x40\n      dup2\n      keccak256\n        /* \"contracts/Loan.sol\":1406:1433  debt[msg.sender] += _amount */\n      dup1\n      sload\n        /* \"contracts/Loan.sol\":1426:1433  _amount */\n      dup4\n      swap3\n        /* \"contracts/Loan.sol\":1406:1422  debt[msg.sender] */\n      swap1\n        /* \"contracts/Loan.sol\":1406:1433  debt[msg.sender] += _amount */\n      tag_75\n      swap1\n        /* \"contracts/Loan.sol\":1426:1433  _amount */\n      dup5\n      swap1\n        /* \"contracts/Loan.sol\":1406:1433  debt[msg.sender] += _amount */\n      tag_63\n      jump\t// in\n    tag_75:\n      swap1\n      swap2\n      sstore\n      pop\n      pop\n        /* \"contracts/Loan.sol\":1444:1456  lendingToken */\n      sload(0x01)\n        /* \"contracts/Loan.sol\":1444:1486  lendingToken.transfer(msg.sender, _amount) */\n      mload(0x40)\n      shl(0xe0, 0xa9059cbb)\n      dup2\n      mstore\n        /* \"contracts/Loan.sol\":1466:1476  msg.sender */\n      caller\n        /* \"contracts/Loan.sol\":1444:1486  lendingToken.transfer(msg.sender, _amount) */\n      0x04\n      dup3\n      add\n        /* \"#utility.yul\":3581:3632   */\n      mstore\n        /* \"#utility.yul\":3648:3666   */\n      0x24\n      dup2\n      add\n        /* \"#utility.yul\":3641:3675   */\n      dup4\n      swap1\n      mstore\n      sub(shl(0xa0, 0x01), 0x01)\n        /* \"contracts/Loan.sol\":1444:1456  lendingToken */\n      swap1\n      swap2\n      and\n      swap1\n        /* \"contracts/Loan.sol\":1444:1465  lendingToken.transfer */\n      0xa9059cbb\n      swap1\n        /* \"#utility.yul\":3554:3572   */\n      0x44\n      add\n        /* \"contracts/Loan.sol\":1444:1486  lendingToken.transfer(msg.sender, _amount) */\n      0x20\n      mload(0x40)\n      dup1\n      dup4\n      sub\n      dup2\n      0x00\n      dup8\n      gas\n      call\n      iszero\n      dup1\n      iszero\n      tag_79\n      jumpi\n      returndatasize\n      0x00\n      dup1\n      returndatacopy\n      revert(0x00, returndatasize)\n    tag_79:\n      pop\n      pop\n      pop\n      pop\n      mload(0x40)\n      returndatasize\n      not(0x1f)\n      0x1f\n      dup3\n      add\n      and\n      dup3\n      add\n      dup1\n      0x40\n      mstore\n      pop\n      dup2\n      add\n      swap1\n      tag_80\n      swap2\n      swap1\n      tag_50\n      jump\t// in\n    tag_80:\n      pop\n        /* \"contracts/Loan.sol\":1502:1531  Borrowed(msg.sender, _amount) */\n      mload(0x40)\n        /* \"#utility.yul\":451:476   */\n      dup2\n      dup2\n      mstore\n        /* \"contracts/Loan.sol\":1511:1521  msg.sender */\n      caller\n      swap1\n        /* \"contracts/Loan.sol\":1502:1531  Borrowed(msg.sender, _amount) */\n      0xac59582e5396aca512fa873a2047e7f4c80f8f55d4a06cb34a78a0187f62719f\n      swap1\n        /* \"#utility.yul\":439:441   */\n      0x20\n        /* \"#utility.yul\":424:442   */\n      add\n        /* \"contracts/Loan.sol\":1502:1531  Borrowed(msg.sender, _amount) */\n      tag_53\n        /* \"#utility.yul\":305:482   */\n      jump\n        /* \"contracts/Loan.sol\":1901:2024  function faucet() external {... */\n    tag_40:\n        /* \"contracts/Loan.sol\":1938:1953  collateralToken */\n      sload(0x00)\n        /* \"contracts/Loan.sol\":1938:1975  collateralToken.mint(msg.sender, 100) */\n      mload(0x40)\n      shl(0xe0, 0x40c10f19)\n      dup2\n      mstore\n        /* \"contracts/Loan.sol\":1959:1969  msg.sender */\n      caller\n        /* \"contracts/Loan.sol\":1938:1975  collateralToken.mint(msg.sender, 100) */\n      0x04\n      dup3\n      add\n        /* \"#utility.yul\":3581:3632   */\n      mstore\n        /* \"contracts/Loan.sol\":1971:1974  100 */\n      0x64\n        /* \"#utility.yul\":3648:3666   */\n      0x24\n      dup3\n      add\n        /* \"#utility.yul\":3641:3675   */\n      mstore\n      sub(shl(0xa0, 0x01), 0x01)\n        /* \"contracts/Loan.sol\":1938:1953  collateralToken */\n      swap1\n      swap2\n      and\n      swap1\n        /* \"contracts/Loan.sol\":1938:1958  collateralToken.mint */\n      0x40c10f19\n      swap1\n        /* \"#utility.yul\":3554:3572   */\n      0x44\n      add\n        /* \"contracts/Loan.sol\":1938:1975  collateralToken.mint(msg.sender, 100) */\n      0x00\n      mload(0x40)\n      dup1\n      dup4\n      sub\n      dup2\n      0x00\n      dup8\n      dup1\n      extcodesize\n      iszero\n      dup1\n      iszero\n      tag_85\n      jumpi\n      0x00\n      dup1\n      revert\n    tag_85:\n      pop\n      gas\n      call\n      iszero\n      dup1\n      iszero\n      tag_87\n      jumpi\n      returndatasize\n      0x00\n      dup1\n      returndatacopy\n      revert(0x00, returndatasize)\n    tag_87:\n      pop\n      pop\n        /* \"contracts/Loan.sol\":1990:2017  FaucetUsed(msg.sender, 100) */\n      mload(0x40)\n        /* \"contracts/Loan.sol\":2013:2016  100 */\n      0x64\n        /* \"#utility.yul\":451:476   */\n      dup2\n      mstore\n        /* \"contracts/Loan.sol\":2001:2011  msg.sender */\n      caller\n      swap3\n      pop\n        /* \"contracts/Loan.sol\":1990:2017  FaucetUsed(msg.sender, 100) */\n      0xc471df7d13ab46c73ec6eb2da0f35f84077f20d50243ba09a714b82cffc54de9\n      swap2\n      pop\n        /* \"#utility.yul\":439:441   */\n      0x20\n        /* \"#utility.yul\":424:442   */\n      add\n        /* \"contracts/Loan.sol\":1990:2017  FaucetUsed(msg.sender, 100) */\n      mload(0x40)\n      dup1\n      swap2\n      sub\n      swap1\n      log2\n        /* \"contracts/Loan.sol\":1901:2024  function faucet() external {... */\n      jump\t// out\n        /* \"#utility.yul\":14:300   */\n    tag_14:\n        /* \"#utility.yul\":73:79   */\n      0x00\n        /* \"#utility.yul\":126:128   */\n      0x20\n        /* \"#utility.yul\":114:123   */\n      dup3\n        /* \"#utility.yul\":105:112   */\n      dup5\n        /* \"#utility.yul\":101:124   */\n      sub\n        /* \"#utility.yul\":97:129   */\n      slt\n        /* \"#utility.yul\":94:146   */\n      iszero\n      tag_93\n      jumpi\n        /* \"#utility.yul\":142:143   */\n      0x00\n        /* \"#utility.yul\":139:140   */\n      dup1\n        /* \"#utility.yul\":132:144   */\n      revert\n        /* \"#utility.yul\":94:146   */\n    tag_93:\n        /* \"#utility.yul\":168:191   */\n      dup2\n      calldataload\n      sub(shl(0xa0, 0x01), 0x01)\n        /* \"#utility.yul\":220:251   */\n      dup2\n      and\n        /* \"#utility.yul\":210:252   */\n      dup2\n      eq\n        /* \"#utility.yul\":200:270   */\n      tag_94\n      jumpi\n        /* \"#utility.yul\":266:267   */\n      0x00\n        /* \"#utility.yul\":263:264   */\n      dup1\n        /* \"#utility.yul\":256:268   */\n      revert\n        /* \"#utility.yul\":200:270   */\n    tag_94:\n        /* \"#utility.yul\":289:294   */\n      swap4\n        /* \"#utility.yul\":14:300   */\n      swap3\n      pop\n      pop\n      pop\n      jump\t// out\n        /* \"#utility.yul\":487:667   */\n    tag_20:\n        /* \"#utility.yul\":546:552   */\n      0x00\n        /* \"#utility.yul\":599:601   */\n      0x20\n        /* \"#utility.yul\":587:596   */\n      dup3\n        /* \"#utility.yul\":578:585   */\n      dup5\n        /* \"#utility.yul\":574:597   */\n      sub\n        /* \"#utility.yul\":570:602   */\n      slt\n        /* \"#utility.yul\":567:619   */\n      iszero\n      tag_97\n      jumpi\n        /* \"#utility.yul\":615:616   */\n      0x00\n        /* \"#utility.yul\":612:613   */\n      dup1\n        /* \"#utility.yul\":605:617   */\n      revert\n        /* \"#utility.yul\":567:619   */\n    tag_97:\n      pop\n        /* \"#utility.yul\":638:661   */\n      calldataload\n      swap2\n        /* \"#utility.yul\":487:667   */\n      swap1\n      pop\n      jump\t// out\n        /* \"#utility.yul\":1622:1899   */\n    tag_50:\n        /* \"#utility.yul\":1689:1695   */\n      0x00\n        /* \"#utility.yul\":1742:1744   */\n      0x20\n        /* \"#utility.yul\":1730:1739   */\n      dup3\n        /* \"#utility.yul\":1721:1728   */\n      dup5\n        /* \"#utility.yul\":1717:1740   */\n      sub\n        /* \"#utility.yul\":1713:1745   */\n      slt\n        /* \"#utility.yul\":1710:1762   */\n      iszero\n      tag_102\n      jumpi\n        /* \"#utility.yul\":1758:1759   */\n      0x00\n        /* \"#utility.yul\":1755:1756   */\n      dup1\n        /* \"#utility.yul\":1748:1760   */\n      revert\n        /* \"#utility.yul\":1710:1762   */\n    tag_102:\n        /* \"#utility.yul\":1790:1799   */\n      dup2\n        /* \"#utility.yul\":1784:1800   */\n      mload\n        /* \"#utility.yul\":1843:1848   */\n      dup1\n        /* \"#utility.yul\":1836:1849   */\n      iszero\n        /* \"#utility.yul\":1829:1850   */\n      iszero\n        /* \"#utility.yul\":1822:1827   */\n      dup2\n        /* \"#utility.yul\":1819:1851   */\n      eq\n        /* \"#utility.yul\":1809:1869   */\n      tag_94\n      jumpi\n        /* \"#utility.yul\":1865:1866   */\n      0x00\n        /* \"#utility.yul\":1862:1863   */\n      dup1\n        /* \"#utility.yul\":1855:1867   */\n      revert\n        /* \"#utility.yul\":1904:2031   */\n    tag_90:\n        /* \"#utility.yul\":1965:1975   */\n      0x4e487b71\n        /* \"#utility.yul\":1960:1963   */\n      0xe0\n        /* \"#utility.yul\":1956:1976   */\n      shl\n        /* \"#utility.yul\":1953:1954   */\n      0x00\n        /* \"#utility.yul\":1946:1977   */\n      mstore\n        /* \"#utility.yul\":1996:2000   */\n      0x11\n        /* \"#utility.yul\":1993:1994   */\n      0x04\n        /* \"#utility.yul\":1986:2001   */\n      mstore\n        /* \"#utility.yul\":2020:2024   */\n      0x24\n        /* \"#utility.yul\":2017:2018   */\n      0x00\n        /* \"#utility.yul\":2010:2025   */\n      revert\n        /* \"#utility.yul\":2036:2164   */\n    tag_52:\n        /* \"#utility.yul\":2103:2112   */\n      dup2\n      dup2\n      sub\n        /* \"#utility.yul\":2124:2135   */\n      dup2\n      dup2\n      gt\n        /* \"#utility.yul\":2121:2158   */\n      iszero\n      tag_107\n      jumpi\n        /* \"#utility.yul\":2138:2156   */\n      tag_107\n      tag_90\n      jump\t// in\n    tag_107:\n        /* \"#utility.yul\":2036:2164   */\n      swap3\n      swap2\n      pop\n      pop\n      jump\t// out\n        /* \"#utility.yul\":2530:2655   */\n    tag_63:\n        /* \"#utility.yul\":2595:2604   */\n      dup1\n      dup3\n      add\n        /* \"#utility.yul\":2616:2626   */\n      dup1\n      dup3\n      gt\n        /* \"#utility.yul\":2613:2649   */\n      iszero\n      tag_107\n      jumpi\n        /* \"#utility.yul\":2629:2647   */\n      tag_107\n      tag_90\n      jump\t// in\n        /* \"#utility.yul\":2660:2828   */\n    tag_69:\n        /* \"#utility.yul\":2733:2742   */\n      dup1\n      dup3\n      mul\n        /* \"#utility.yul\":2764:2773   */\n      dup2\n      iszero\n        /* \"#utility.yul\":2781:2796   */\n      dup3\n      dup3\n      div\n        /* \"#utility.yul\":2775:2797   */\n      dup5\n      eq\n        /* \"#utility.yul\":2761:2798   */\n      or\n        /* \"#utility.yul\":2751:2822   */\n      tag_107\n      jumpi\n        /* \"#utility.yul\":2802:2820   */\n      tag_107\n      tag_90\n      jump\t// in\n        /* \"#utility.yul\":2833:3050   */\n    tag_71:\n        /* \"#utility.yul\":2873:2874   */\n      0x00\n        /* \"#utility.yul\":2899:2900   */\n      dup3\n        /* \"#utility.yul\":2889:3021   */\n      tag_116\n      jumpi\n        /* \"#utility.yul\":2943:2953   */\n      0x4e487b71\n        /* \"#utility.yul\":2938:2941   */\n      0xe0\n        /* \"#utility.yul\":2934:2954   */\n      shl\n        /* \"#utility.yul\":2931:2932   */\n      0x00\n        /* \"#utility.yul\":2924:2955   */\n      mstore\n        /* \"#utility.yul\":2978:2982   */\n      0x12\n        /* \"#utility.yul\":2975:2976   */\n      0x04\n        /* \"#utility.yul\":2968:2983   */\n      mstore\n        /* \"#utility.yul\":3006:3010   */\n      0x24\n        /* \"#utility.yul\":3003:3004   */\n      0x00\n        /* \"#utility.yul\":2996:3011   */\n      revert\n        /* \"#utility.yul\":2889:3021   */\n    tag_116:\n      pop\n        /* \"#utility.yul\":3035:3044   */\n      div\n      swap1\n        /* \"#utility.yul\":2833:3050   */\n      jump\t// out\n\n    auxdata: 0xa2646970667358221220a9d374a0d974ac29450c03bda40840ea1777217c8871e6d8cdb66cb26def40b364736f6c634300081a0033\n}\n",
				"bytecode": {
					"linkReferences": {},
					"object": "608060405234801561000f575f80fd5b506040516107e53803806107e583398101604081905261002e916100ce565b5f80546001600160a01b038581166001600160a01b0319928316179092556001805492851692909116821790556040516340c10f1960e01b8152306004820152602481018390526340c10f19906044015f604051808303815f87803b158015610095575f80fd5b505af11580156100a7573d5f803e3d5ffd5b50505050505050610107565b80516001600160a01b03811681146100c9575f80fd5b919050565b5f805f606084860312156100e0575f80fd5b6100e9846100b3565b92506100f7602085016100b3565b9150604084015190509250925092565b6106d1806101145f395ff3fe608060405234801561000f575f80fd5b5060043610610085575f3560e01c8063b2016bd411610058578063b2016bd41461011a578063bad4a01f1461012c578063c5ebeaec1461013f578063de5f72fd14610152575f80fd5b806329bc969d14610089578063371fd8e6146100bb5780639b6c56ec146100d0578063aaaca558146100ef575b5f80fd5b6100a86100973660046105c2565b60026020525f908152604090205481565b6040519081526020015b60405180910390f35b6100ce6100c93660046105ef565b61015a565b005b6100a86100de3660046105c2565b60036020525f908152604090205481565b600154610102906001600160a01b031681565b6040516001600160a01b0390911681526020016100b2565b5f54610102906001600160a01b031681565b6100ce61013a3660046105ef565b610285565b6100ce61014d3660046105ef565b6103a1565b6100ce61052c565b335f908152600360205260409020546101b05760405162461bcd60e51b8152602060048201526013602482015272139bc81bdd5d1cdd185b991a5b99c81919589d606a1b60448201526064015b60405180910390fd5b6001546040516323b872dd60e01b8152336004820152306024820152604481018390526001600160a01b03909116906323b872dd906064016020604051808303815f875af1158015610204573d5f803e3d5ffd5b505050506040513d601f19601f820116820180604052508101906102289190610606565b50335f9081526003602052604081208054839290610247908490610639565b909155505060405181815233907f0516911bcc3a0a7412a44601057c0a0a1ec628bde049a84284bc428866534488906020015b60405180910390a250565b5f81116102d45760405162461bcd60e51b815260206004820181905260248201527f416d6f756e74206d7573742062652067726561746572207468616e207a65726f60448201526064016101a7565b5f546040516323b872dd60e01b8152336004820152306024820152604481018390526001600160a01b03909116906323b872dd906064016020604051808303815f875af1158015610327573d5f803e3d5ffd5b505050506040513d601f19601f8201168201806040525081019061034b9190610606565b50335f908152600260205260408120805483929061036a908490610652565b909155505060405181815233907fd7243f6f8212d5188fd054141cf6ea89cfc0d91facb8c3afe2f88a13584801429060200161027a565b5f81116103f05760405162461bcd60e51b815260206004820181905260248201527f416d6f756e74206d7573742062652067726561746572207468616e207a65726f60448201526064016101a7565b60646103fd826096610665565b610407919061067c565b335f9081526002602052604090205410156104645760405162461bcd60e51b815260206004820152601760248201527f496e73756666696369656e7420636f6c6c61746572616c00000000000000000060448201526064016101a7565b335f9081526003602052604081208054839290610482908490610652565b909155505060015460405163a9059cbb60e01b8152336004820152602481018390526001600160a01b039091169063a9059cbb906044016020604051808303815f875af11580156104d5573d5f803e3d5ffd5b505050506040513d601f19601f820116820180604052508101906104f99190610606565b5060405181815233907fac59582e5396aca512fa873a2047e7f4c80f8f55d4a06cb34a78a0187f62719f9060200161027a565b5f546040516340c10f1960e01b8152336004820152606460248201526001600160a01b03909116906340c10f19906044015f604051808303815f87803b158015610574575f80fd5b505af1158015610586573d5f803e3d5ffd5b5050604051606481523392507fc471df7d13ab46c73ec6eb2da0f35f84077f20d50243ba09a714b82cffc54de9915060200160405180910390a2565b5f602082840312156105d2575f80fd5b81356001600160a01b03811681146105e8575f80fd5b9392505050565b5f602082840312156105ff575f80fd5b5035919050565b5f60208284031215610616575f80fd5b815180151581146105e8575f80fd5b634e487b7160e01b5f52601160045260245ffd5b8181038181111561064c5761064c610625565b92915050565b8082018082111561064c5761064c610625565b808202811582820484141761064c5761064c610625565b5f8261069657634e487b7160e01b5f52601260045260245ffd5b50049056fea2646970667358221220a9d374a0d974ac29450c03bda40840ea1777217c8871e6d8cdb66cb26def40b364736f6c634300081a0033",
					"opcodes": "PUSH1 0x80 PUSH1 0x40 MSTORE CALLVALUE DUP1 ISZERO PUSH2 0xF JUMPI PUSH0 DUP1 REVERT JUMPDEST POP PUSH1 0x40 MLOAD PUSH2 0x7E5 CODESIZE SUB DUP1 PUSH2 0x7E5 DUP4 CODECOPY DUP2 ADD PUSH1 0x40 DUP2 SWAP1 MSTORE PUSH2 0x2E SWAP2 PUSH2 0xCE JUMP JUMPDEST PUSH0 DUP1 SLOAD PUSH1 0x1 PUSH1 0x1 PUSH1 0xA0 SHL SUB DUP6 DUP2 AND PUSH1 0x1 PUSH1 0x1 PUSH1 0xA0 SHL SUB NOT SWAP3 DUP4 AND OR SWAP1 SWAP3 SSTORE PUSH1 0x1 DUP1 SLOAD SWAP3 DUP6 AND SWAP3 SWAP1 SWAP2 AND DUP3 OR SWAP1 SSTORE PUSH1 0x40 MLOAD PUSH4 0x40C10F19 PUSH1 0xE0 SHL DUP2 MSTORE ADDRESS PUSH1 0x4 DUP3 ADD MSTORE PUSH1 0x24 DUP2 ADD DUP4 SWAP1 MSTORE PUSH4 0x40C10F19 SWAP1 PUSH1 0x44 ADD PUSH0 PUSH1 0x40 MLOAD DUP1 DUP4 SUB DUP2 PUSH0 DUP8 DUP1 EXTCODESIZE ISZERO DUP1 ISZERO PUSH2 0x95 JUMPI PUSH0 DUP1 REVERT JUMPDEST POP GAS CALL ISZERO DUP1 ISZERO PUSH2 0xA7 JUMPI RETURNDATASIZE PUSH0 DUP1 RETURNDATACOPY RETURNDATASIZE PUSH0 REVERT JUMPDEST POP POP POP POP POP POP POP PUSH2 0x107 JUMP JUMPDEST DUP1 MLOAD PUSH1 0x1 PUSH1 0x1 PUSH1 0xA0 SHL SUB DUP2 AND DUP2 EQ PUSH2 0xC9 JUMPI PUSH0 DUP1 REVERT JUMPDEST SWAP2 SWAP1 POP JUMP JUMPDEST PUSH0 DUP1 PUSH0 PUSH1 0x60 DUP5 DUP7 SUB SLT ISZERO PUSH2 0xE0 JUMPI PUSH0 DUP1 REVERT JUMPDEST PUSH2 0xE9 DUP5 PUSH2 0xB3 JUMP JUMPDEST SWAP3 POP PUSH2 0xF7 PUSH1 0x20 DUP6 ADD PUSH2 0xB3 JUMP JUMPDEST SWAP2 POP PUSH1 0x40 DUP5 ADD MLOAD SWAP1 POP SWAP3 POP SWAP3 POP SWAP3 JUMP JUMPDEST PUSH2 0x6D1 DUP1 PUSH2 0x114 PUSH0 CODECOPY PUSH0 RETURN INVALID PUSH1 0x80 PUSH1 0x40 MSTORE CALLVALUE DUP1 ISZERO PUSH2 0xF JUMPI PUSH0 DUP1 REVERT JUMPDEST POP PUSH1 0x4 CALLDATASIZE LT PUSH2 0x85 JUMPI PUSH0 CALLDATALOAD PUSH1 0xE0 SHR DUP1 PUSH4 0xB2016BD4 GT PUSH2 0x58 JUMPI DUP1 PUSH4 0xB2016BD4 EQ PUSH2 0x11A JUMPI DUP1 PUSH4 0xBAD4A01F EQ PUSH2 0x12C JUMPI DUP1 PUSH4 0xC5EBEAEC EQ PUSH2 0x13F JUMPI DUP1 PUSH4 0xDE5F72FD EQ PUSH2 0x152 JUMPI PUSH0 DUP1 REVERT JUMPDEST DUP1 PUSH4 0x29BC969D EQ PUSH2 0x89 JUMPI DUP1 PUSH4 0x371FD8E6 EQ PUSH2 0xBB JUMPI DUP1 PUSH4 0x9B6C56EC EQ PUSH2 0xD0 JUMPI DUP1 PUSH4 0xAAACA558 EQ PUSH2 0xEF JUMPI JUMPDEST PUSH0 DUP1 REVERT JUMPDEST PUSH2 0xA8 PUSH2 0x97 CALLDATASIZE PUSH1 0x4 PUSH2 0x5C2 JUMP JUMPDEST PUSH1 0x2 PUSH1 0x20 MSTORE PUSH0 SWAP1 DUP2 MSTORE PUSH1 0x40 SWAP1 KECCAK256 SLOAD DUP2 JUMP JUMPDEST PUSH1 0x40 MLOAD SWAP1 DUP2 MSTORE PUSH1 0x20 ADD JUMPDEST PUSH1 0x40 MLOAD DUP1 SWAP2 SUB SWAP1 RETURN JUMPDEST PUSH2 0xCE PUSH2 0xC9 CALLDATASIZE PUSH1 0x4 PUSH2 0x5EF JUMP JUMPDEST PUSH2 0x15A JUMP JUMPDEST STOP JUMPDEST PUSH2 0xA8 PUSH2 0xDE CALLDATASIZE PUSH1 0x4 PUSH2 0x5C2 JUMP JUMPDEST PUSH1 0x3 PUSH1 0x20 MSTORE PUSH0 SWAP1 DUP2 MSTORE PUSH1 0x40 SWAP1 KECCAK256 SLOAD DUP2 JUMP JUMPDEST PUSH1 0x1 SLOAD PUSH2 0x102 SWAP1 PUSH1 0x1 PUSH1 0x1 PUSH1 0xA0 SHL SUB AND DUP2 JUMP JUMPDEST PUSH1 0x40 MLOAD PUSH1 0x1 PUSH1 0x1 PUSH1 0xA0 SHL SUB SWAP1 SWAP2 AND DUP2 MSTORE PUSH1 0x20 ADD PUSH2 0xB2 JUMP JUMPDEST PUSH0 SLOAD PUSH2 0x102 SWAP1 PUSH1 0x1 PUSH1 0x1 PUSH1 0xA0 SHL SUB AND DUP2 JUMP JUMPDEST PUSH2 0xCE PUSH2 0x13A CALLDATASIZE PUSH1 0x4 PUSH2 0x5EF JUMP JUMPDEST PUSH2 0x285 JUMP JUMPDEST PUSH2 0xCE PUSH2 0x14D CALLDATASIZE PUSH1 0x4 PUSH2 0x5EF JUMP JUMPDEST PUSH2 0x3A1 JUMP JUMPDEST PUSH2 0xCE PUSH2 0x52C JUMP JUMPDEST CALLER PUSH0 SWAP1 DUP2 MSTORE PUSH1 0x3 PUSH1 0x20 MSTORE PUSH1 0x40 SWAP1 KECCAK256 SLOAD PUSH2 0x1B0 JUMPI PUSH1 0x40 MLOAD PUSH3 0x461BCD PUSH1 0xE5 SHL DUP2 MSTORE PUSH1 0x20 PUSH1 0x4 DUP3 ADD MSTORE PUSH1 0x13 PUSH1 0x24 DUP3 ADD MSTORE PUSH19 0x139BC81BDD5D1CDD185B991A5B99C81919589D PUSH1 0x6A SHL PUSH1 0x44 DUP3 ADD MSTORE PUSH1 0x64 ADD JUMPDEST PUSH1 0x40 MLOAD DUP1 SWAP2 SUB SWAP1 REVERT JUMPDEST PUSH1 0x1 SLOAD PUSH1 0x40 MLOAD PUSH4 0x23B872DD PUSH1 0xE0 SHL DUP2 MSTORE CALLER PUSH1 0x4 DUP3 ADD MSTORE ADDRESS PUSH1 0x24 DUP3 ADD MSTORE PUSH1 0x44 DUP2 ADD DUP4 SWAP1 MSTORE PUSH1 0x1 PUSH1 0x1 PUSH1 0xA0 SHL SUB SWAP1 SWAP2 AND SWAP1 PUSH4 0x23B872DD SWAP1 PUSH1 0x64 ADD PUSH1 0x20 PUSH1 0x40 MLOAD DUP1 DUP4 SUB DUP2 PUSH0 DUP8 GAS CALL ISZERO DUP1 ISZERO PUSH2 0x204 JUMPI RETURNDATASIZE PUSH0 DUP1 RETURNDATACOPY RETURNDATASIZE PUSH0 REVERT JUMPDEST POP POP POP POP PUSH1 0x40 MLOAD RETURNDATASIZE PUSH1 0x1F NOT PUSH1 0x1F DUP3 ADD AND DUP3 ADD DUP1 PUSH1 0x40 MSTORE POP DUP2 ADD SWAP1 PUSH2 0x228 SWAP2 SWAP1 PUSH2 0x606 JUMP JUMPDEST POP CALLER PUSH0 SWAP1 DUP2 MSTORE PUSH1 0x3 PUSH1 0x20 MSTORE PUSH1 0x40 DUP2 KECCAK256 DUP1 SLOAD DUP4 SWAP3 SWAP1 PUSH2 0x247 SWAP1 DUP5 SWAP1 PUSH2 0x639 JUMP JUMPDEST SWAP1 SWAP2 SSTORE POP POP PUSH1 0x40 MLOAD DUP2 DUP2 MSTORE CALLER SWAP1 PUSH32 0x516911BCC3A0A7412A44601057C0A0A1EC628BDE049A84284BC428866534488 SWAP1 PUSH1 0x20 ADD JUMPDEST PUSH1 0x40 MLOAD DUP1 SWAP2 SUB SWAP1 LOG2 POP JUMP JUMPDEST PUSH0 DUP2 GT PUSH2 0x2D4 JUMPI PUSH1 0x40 MLOAD PUSH3 0x461BCD PUSH1 0xE5 SHL DUP2 MSTORE PUSH1 0x20 PUSH1 0x4 DUP3 ADD DUP2 SWAP1 MSTORE PUSH1 0x24 DUP3 ADD MSTORE PUSH32 0x416D6F756E74206D7573742062652067726561746572207468616E207A65726F PUSH1 0x44 DUP3 ADD MSTORE PUSH1 0x64 ADD PUSH2 0x1A7 JUMP JUMPDEST PUSH0 SLOAD PUSH1 0x40 MLOAD PUSH4 0x23B872DD PUSH1 0xE0 SHL DUP2 MSTORE CALLER PUSH1 0x4 DUP3 ADD MSTORE ADDRESS PUSH1 0x24 DUP3 ADD MSTORE PUSH1 0x44 DUP2 ADD DUP4 SWAP1 MSTORE PUSH1 0x1 PUSH1 0x1 PUSH1 0xA0 SHL SUB SWAP1 SWAP2 AND SWAP1 PUSH4 0x23B872DD SWAP1 PUSH1 0x64 ADD PUSH1 0x20 PUSH1 0x40 MLOAD DUP1 DUP4 SUB DUP2 PUSH0 DUP8 GAS CALL ISZERO DUP1 ISZERO PUSH2 0x327 JUMPI RETURNDATASIZE PUSH0 DUP1 RETURNDATACOPY RETURNDATASIZE PUSH0 REVERT JUMPDEST POP POP POP POP PUSH1 0x40 MLOAD RETURNDATASIZE PUSH1 0x1F NOT PUSH1 0x1F DUP3 ADD AND DUP3 ADD DUP1 PUSH1 0x40 MSTORE POP DUP2 ADD SWAP1 PUSH2 0x34B SWAP2 SWAP1 PUSH2 0x606 JUMP JUMPDEST POP CALLER PUSH0 SWAP1 DUP2 MSTORE PUSH1 0x2 PUSH1 0x20 MSTORE PUSH1 0x40 DUP2 KECCAK256 DUP1 SLOAD DUP4 SWAP3 SWAP1 PUSH2 0x36A SWAP1 DUP5 SWAP1 PUSH2 0x652 JUMP JUMPDEST SWAP1 SWAP2 SSTORE POP POP PUSH1 0x40 MLOAD DUP2 DUP2 MSTORE CALLER SWAP1 PUSH32 0xD7243F6F8212D5188FD054141CF6EA89CFC0D91FACB8C3AFE2F88A1358480142 SWAP1 PUSH1 0x20 ADD PUSH2 0x27A JUMP JUMPDEST PUSH0 DUP2 GT PUSH2 0x3F0 JUMPI PUSH1 0x40 MLOAD PUSH3 0x461BCD PUSH1 0xE5 SHL DUP2 MSTORE PUSH1 0x20 PUSH1 0x4 DUP3 ADD DUP2 SWAP1 MSTORE PUSH1 0x24 DUP3 ADD MSTORE PUSH32 0x416D6F756E74206D7573742062652067726561746572207468616E207A65726F PUSH1 0x44 DUP3 ADD MSTORE PUSH1 0x64 ADD PUSH2 0x1A7 JUMP JUMPDEST PUSH1 0x64 PUSH2 0x3FD DUP3 PUSH1 0x96 PUSH2 0x665 JUMP JUMPDEST PUSH2 0x407 SWAP2 SWAP1 PUSH2 0x67C JUMP JUMPDEST CALLER PUSH0 SWAP1 DUP2 MSTORE PUSH1 0x2 PUSH1 0x20 MSTORE PUSH1 0x40 SWAP1 KECCAK256 SLOAD LT ISZERO PUSH2 0x464 JUMPI PUSH1 0x40 MLOAD PUSH3 0x461BCD PUSH1 0xE5 SHL DUP2 MSTORE PUSH1 0x20 PUSH1 0x4 DUP3 ADD MSTORE PUSH1 0x17 PUSH1 0x24 DUP3 ADD MSTORE PUSH32 0x496E73756666696369656E7420636F6C6C61746572616C000000000000000000 PUSH1 0x44 DUP3 ADD MSTORE PUSH1 0x64 ADD PUSH2 0x1A7 JUMP JUMPDEST CALLER PUSH0 SWAP1 DUP2 MSTORE PUSH1 0x3 PUSH1 0x20 MSTORE PUSH1 0x40 DUP2 KECCAK256 DUP1 SLOAD DUP4 SWAP3 SWAP1 PUSH2 0x482 SWAP1 DUP5 SWAP1 PUSH2 0x652 JUMP JUMPDEST SWAP1 SWAP2 SSTORE POP POP PUSH1 0x1 SLOAD PUSH1 0x40 MLOAD PUSH4 0xA9059CBB PUSH1 0xE0 SHL DUP2 MSTORE CALLER PUSH1 0x4 DUP3 ADD MSTORE PUSH1 0x24 DUP2 ADD DUP4 SWAP1 MSTORE PUSH1 0x1 PUSH1 0x1 PUSH1 0xA0 SHL SUB SWAP1 SWAP2 AND SWAP1 PUSH4 0xA9059CBB SWAP1 PUSH1 0x44 ADD PUSH1 0x20 PUSH1 0x40 MLOAD DUP1 DUP4 SUB DUP2 PUSH0 DUP8 GAS CALL ISZERO DUP1 ISZERO PUSH2 0x4D5 JUMPI RETURNDATASIZE PUSH0 DUP1 RETURNDATACOPY RETURNDATASIZE PUSH0 REVERT JUMPDEST POP POP POP POP PUSH1 0x40 MLOAD RETURNDATASIZE PUSH1 0x1F NOT PUSH1 0x1F DUP3 ADD AND DUP3 ADD DUP1 PUSH1 0x40 MSTORE POP DUP2 ADD SWAP1 PUSH2 0x4F9 SWAP2 SWAP1 PUSH2 0x606 JUMP JUMPDEST POP PUSH1 0x40 MLOAD DUP2 DUP2 MSTORE CALLER SWAP1 PUSH32 0xAC59582E5396ACA512FA873A2047E7F4C80F8F55D4A06CB34A78A0187F62719F SWAP1 PUSH1 0x20 ADD PUSH2 0x27A JUMP JUMPDEST PUSH0 SLOAD PUSH1 0x40 MLOAD PUSH4 0x40C10F19 PUSH1 0xE0 SHL DUP2 MSTORE CALLER PUSH1 0x4 DUP3 ADD MSTORE PUSH1 0x64 PUSH1 0x24 DUP3 ADD MSTORE PUSH1 0x1 PUSH1 0x1 PUSH1 0xA0 SHL SUB SWAP1 SWAP2 AND SWAP1 PUSH4 0x40C10F19 SWAP1 PUSH1 0x44 ADD PUSH0 PUSH1 0x40 MLOAD DUP1 DUP4 SUB DUP2 PUSH0 DUP8 DUP1 EXTCODESIZE ISZERO DUP1 ISZERO PUSH2 0x574 JUMPI PUSH0 DUP1 REVERT JUMPDEST POP GAS CALL ISZERO DUP1 ISZERO PUSH2 0x586 JUMPI RETURNDATASIZE PUSH0 DUP1 RETURNDATACOPY RETURNDATASIZE PUSH0 REVERT JUMPDEST POP POP PUSH1 0x40 MLOAD PUSH1 0x64 DUP2 MSTORE CALLER SWAP3 POP PUSH32 0xC471DF7D13AB46C73EC6EB2DA0F35F84077F20D50243BA09A714B82CFFC54DE9 SWAP2 POP PUSH1 0x20 ADD PUSH1 0x40 MLOAD DUP1 SWAP2 SUB SWAP1 LOG2 JUMP JUMPDEST PUSH0 PUSH1 0x20 DUP3 DUP5 SUB SLT ISZERO PUSH2 0x5D2 JUMPI PUSH0 DUP1 REVERT JUMPDEST DUP2 CALLDATALOAD PUSH1 0x1 PUSH1 0x1 PUSH1 0xA0 SHL SUB DUP2 AND DUP2 EQ PUSH2 0x5E8 JUMPI PUSH0 DUP1 REVERT JUMPDEST SWAP4 SWAP3 POP POP POP JUMP JUMPDEST PUSH0 PUSH1 0x20 DUP3 DUP5 SUB SLT ISZERO PUSH2 0x5FF JUMPI PUSH0 DUP1 REVERT JUMPDEST POP CALLDATALOAD SWAP2 SWAP1 POP JUMP JUMPDEST PUSH0 PUSH1 0x20 DUP3 DUP5 SUB SLT ISZERO PUSH2 0x616 JUMPI PUSH0 DUP1 REVERT JUMPDEST DUP2 MLOAD DUP1 ISZERO ISZERO DUP2 EQ PUSH2 0x5E8 JUMPI PUSH0 DUP1 REVERT JUMPDEST PUSH4 0x4E487B71 PUSH1 0xE0 SHL PUSH0 MSTORE PUSH1 0x11 PUSH1 0x4 MSTORE PUSH1 0x24 PUSH0 REVERT JUMPDEST DUP2 DUP2 SUB DUP2 DUP2 GT ISZERO PUSH2 0x64C JUMPI PUSH2 0x64C PUSH2 0x625 JUMP JUMPDEST SWAP3 SWAP2 POP POP JUMP JUMPDEST DUP1 DUP3 ADD DUP1 DUP3 GT ISZERO PUSH2 0x64C JUMPI PUSH2 0x64C PUSH2 0x625 JUMP JUMPDEST DUP1 DUP3 MUL DUP2 ISZERO DUP3 DUP3 DIV DUP5 EQ OR PUSH2 0x64C JUMPI PUSH2 0x64C PUSH2 0x625 JUMP JUMPDEST PUSH0 DUP3 PUSH2 0x696 JUMPI PUSH4 0x4E487B71 PUSH1 0xE0 SHL PUSH0 MSTORE PUSH1 0x12 PUSH1 0x4 MSTORE PUSH1 0x24 PUSH0 REVERT JUMPDEST POP DIV SWAP1 JUMP INVALID LOG2 PUSH5 0x6970667358 0x22 SLT KECCAK256 0xA9 0xD3 PUSH21 0xA0D974AC29450C03BDA40840EA1777217C8871E6D8 0xCD 0xB6 PUSH13 0xB26DEF40B364736F6C63430008 BYTE STOP CALLER "
				},
				"gasEstimates": {
					"creation": {
						"codeDepositCost": "349000",
						"executionCost": "infinite",
						"totalCost": "infinite"
					},
					"external": {
						"borrow(uint256)": "infinite",
						"collateralBalances(address)": "2471",
						"collateralToken()": "2335",
						"debt(address)": "2515",
						"depositCollateral(uint256)": "infinite",
						"faucet()": "infinite",
						"lendingToken()": "2403",
						"repay(uint256)": "infinite"
					}
				},
				"methodIdentifiers": {
					"borrow(uint256)": "c5ebeaec",
					"collateralBalances(address)": "29bc969d",
					"collateralToken()": "b2016bd4",
					"debt(address)": "9b6c56ec",
					"depositCollateral(uint256)": "bad4a01f",
					"faucet()": "de5f72fd",
					"lendingToken()": "aaaca558",
					"repay(uint256)": "371fd8e6"
				}
			},
			"storageLayout": {
				"storage": [
					{
						"astId": 791,
						"contract": "contracts/Loan.sol:LendingContract",
						"label": "collateralToken",
						"offset": 0,
						"slot": "0",
						"type": "t_contract(MockToken)1041"
					},
					{
						"astId": 794,
						"contract": "contracts/Loan.sol:LendingContract",
						"label": "lendingToken",
						"offset": 0,
						"slot": "1",
						"type": "t_contract(MockToken)1041"
					},
					{
						"astId": 798,
						"contract": "contracts/Loan.sol:LendingContract",
						"label": "collateralBalances",
						"offset": 0,
						"slot": "2",
						"type": "t_mapping(t_address,t_uint256)"
					},
					{
						"astId": 802,
						"contract": "contracts/Loan.sol:LendingContract",
						"label": "debt",
						"offset": 0,
						"slot": "3",
						"type": "t_mapping(t_address,t_uint256)"
					}
				],
				"types": {
					"t_address": {
						"encoding": "inplace",
						"label": "address",
						"numberOfBytes": "20"
					},
					"t_contract(MockToken)1041": {
						"encoding": "inplace",
						"label": "contract MockToken",
						"numberOfBytes": "20"
					},
					"t_mapping(t_address,t_uint256)": {
						"encoding": "mapping",
						"key": "t_address",
						"label": "mapping(address => uint256)",
						"numberOfBytes": "32",
						"value": "t_uint256"
					},
					"t_uint256": {
						"encoding": "inplace",
						"label": "uint256",
						"numberOfBytes": "32"
					}
				}
			},
			"userdoc": {
				"kind": "user",
				"methods": {},
				"version": 1
			}
		}
	}
}